:020000020000fc
:0100000001fe
:0100010002fc
:0100020001fc
:0100030000fc
:0100040003f8
:0100050002f8
:0100060001f8
:0100070000f8
:0100080003f4
:0100090001f5
:01000a0002f3
:01000b0000f4
:01000c0000f3
:01000d0002f0
:01000e0000f1
:01000f0003ed
:0100100001ee
:0100110003eb
:0100120002eb
:0100130000ec
:0100140003e8
:0100150002e8
:0100160003e6
:0100170003e5
:0100180001e6
:0100190000e6
:01001a0002e3
:01001b0002e2
:01001c0000e3
:01001d0002e0
:01001e0000e1
:01001f0002de
:0100200000df
:0100210000de
:0100220003da
:0100230000dc
:0100240002d9
:0100250001d9
:0100260001d8
:0100270000d8
:0100280002d5
:0100290003d3
:01002a0000d5
:01002b0001d3
:01002c0003d0
:01002d0003cf
:01002e0000d1
:01002f0000d0
:0100300003cc
:0100310001cd
:0100320000cd
:0100330002ca
:0100340000cb
:0100350001c9
:0100360000c9
:0100370002c6
:0100380002c5
:0100390002c4
:01003a0000c5
:01003b0003c1
:01003c0000c3
:01003d0001c1
:01003e0003be
:01003f0003bd
:0100400003bc
:0100410000be
:0100420002bb
:0100430000bc
:0100440001ba
:0100450001b9
:0100460003b6
:0100470000b8
:0100480001b6
:0100490002b4
:01004a0001b4
:01004b0001b3
:01004c0003b0
:01004d0000b2
:01004e0001b0
:01004f0000b0
:0100500003ac
:0100510000ae
:0100520000ad
:0100530000ac
:0100540000ab
:0100550002a8
:0100560001a8
:0100570000a8
:0100580001a6
:0100590003a3
:01005a0002a3
:01005b0000a4
:01005c0003a0
:01005d0001a1
:01005e0001a0
:01005f00029e
:01006000019e
:01006100009e
:01006200029b
:010063000399
:010064000398
:01006500009a
:010066000099
:010067000296
:010068000097
:010069000393
:01006a000392
:01006b000193
:01006c000390
:01006d000092
:01006e00038e
:01006f000090
:01007000008f
:01007100038b
:01007200038a
:01007300008c
:01007400018a
:010075000288
:010076000386
:010077000286
:010078000285
:010079000284
:01007a000085
:01007b000282
:01007c000281
:01007d000280
:01007e00037e
:01007f00027e
:01008000007f
:01008100007e
:01008200037a
:01008300007c
:01008400017a
:010085000179
:010086000376
:010087000078
:010088000275
:010089000373
:01008a000174
:01008b000074
:01008c000370
:01008d00036f
:01008e000170
:01008f00016f
:01009000006f
:01009100036b
:01009200016c
:01009300026a
:01009400006b
:01009500006a
:010096000168
:010097000068
:010098000067
:010099000165
:01009a000164
:01009b000064
:01009c000063
:01009d000062
:01009e000160
:01009f00035d
:0100a000005f
:0100a100035b
:0100a200015c
:0100a300015b
:0100a4000358
:0100a500005a
:0100a6000356
:0100a7000256
:0100a8000255
:0100a9000254
:0100aa000154
:0100ab000054
:0100ac000350
:0100ad000151
:0100ae00034e
:0100af000050
:0100b000034c
:0100b100024c
:0100b200024b
:0100b300024a
:0100b400004b
:0100b5000347
:0100b6000148
:0100b7000147
:0100b8000245
:0100b9000145
:0100ba000045
:0100bb000044
:0100bc000142
:0100bd000240
:0100be00033e
:0100bf00013f
:0100c000023d
:0100c100003e
:0100c200013c
:0100c300013b
:0100c4000338
:0100c5000238
:0100c6000336
:0100c7000236
:0100c8000235
:0100c9000234
:0100ca000134
:0100cb000034
:0100cc000033
:0100cd000032
:0100ce00032e
:0100cf000030
:0100d000022d
:0100d100012d
:0100d200002d
:0100d300002c
:0100d4000328
:0100d5000327
:0100d6000029
:0100d7000226
:0100d8000027
:0100d9000224
:0100da000025
:0100db000321
:0100dc000221
:0100dd000022
:0100de00021f
:0100df000020
:0100e000031c
:0100e100011d
:0100e200021b
:0100e300011b
:0100e4000219
:0100e5000218
:0100e6000217
:0100e7000216
:0100e8000215
:0100e9000016
:0100ea000312
:0100eb000311
:0100ec000112
:0100ed000210
:0100ee000110
:0100ef00030d
:0100f000010e
:0100f100010d
:0100f200020b
:0100f3000309
:0100f400000b
:0100f5000208
:0100f6000009
:0100f7000008
:0100f8000007
:0100f9000006
:0100fa000203
:0100fb000103
:0100fc000003
:0100fd000101
:0100fe000001
:0100ff0002fe
:00000001FF
